:400000000080002011000000850700008507000008B5044B1A6803F53F5302331A6000F0D1FB00BFFA46004010B5054C237833B9044B13B10448AFF300800123237010BD93
:40004000E881FF1F0000000028520000084B10B51BB108490848AFF300800848036803B910BD074B002BFBD0BDE81040184700BF00000000EC81FF1F28520000C880FF1FCE
:400080000000000010B51446C9B2C0B200F0AEFF204600F089FF10BD38B500F0B7FC002876D03C4C256800F09BFC3B4B5855236801332360072B6BD1374C2378303B60780E
:4000C0003038A17803EB830303EB83039D0000EB80035A002A440A44303A12B22D4B9A802E4D2F49284603F0D3FC2A4601210620FFF7C8FF2279A2F130016379303B03EB8A
:4001000083035A00642303FB0122A379303B1A44244B1A60244D2549284603F0B9FC244A00210620FFF7AEFF2A4600210620FFF7A9FFE378692B0CD11E4A00210846FFF72E
:40014000A1FF00200021134BC3E9020100221A4B1A60114BDB78642B0CD1184A00210846FFF790FF002000210A4BC3E902010022114B1A60084BDB78702B04D1104A002151
:400180000846FFF77FFF00F04DFC0022014B1A6038BD00BF0882FF1F3482FF1F2C82FF1F30520000CC80FF1F3082FF1F38520000405200004C5200004082FF1F6052000058
:4001C000745200000000000070B500F08FFF00F0A7FFC0EB00108300594880FB0320DB17C3EB201002F030FF564B186002F01EFB554C02460B465549204603F049FC224690
:4002000001210620FFF73EFF514BB3F904306BB14C4B186802F00AFB4E4C02460B464E49204603F035FC204600F01AFC002000F071FF00F0C7FF464CB4F90460304602F09C
:40024000E3FA04F10805D5E9004522462B4602F0C7FD38B3414BDB78702B23D013B3404B186896FBF0F002F0CFFA22462B4602F07FF9374BC3E902012DA3D3E9002301F0A4
:4002800097F802F0D7FD02F0D1FA2BA3D3E9002302F020FB02F0CEFD324B1860324A1388013313802A4BD3E9024500222F4B2046294602F095FD50B3284BDB78702B26D11A
:4002C000234EB6F90400264B1B6890FBF3F002F09BFA02460B462046294602F047F9C6E9020113A3D3E9002301F062F802F0A2FD02F09CFA10A3D3E9002302F0EBFA02F04B
:4003000099FD184B1860184A138801331380104BB3F904304BB1164C134B1A881549204603F0B6FB204600F09BFB70BDAFF3008014AE47E17A14EEBF9A99999999596C4024
:400340001F85EB514082FF1F5882FF1F885200000882FF1F6482FF1F905200003482FF1FCC80FF1F9482FF1F5E82FF1F000014404482FF1FA452000038B562B65F4800F023
:4003800095FA5F4800F0AEFF00F01CFB00F082FF00F0CCFB00F08CFE5A4C221D00210846FFF770FE04F1140201210020FFF76AFE554BDB78642B26D1012000F0D1FF0025DF
:4003C00019E0504C04EB051494F8240000F098FF94F8280000F0B8FF94F82C0000F0A8FF94F8300000F098FF484B186802F080FE00F06CFA0135032DE3DD002000F0B0FF7E
:40040000012000F063FA404BDB78692B26D1012000F0A6FF032519E03A4C04EB051494F8240000F06DFF94F8280000F08DFF94F82C0000F07DFF94F8300000F06DFF334B8A
:40044000186802F055FE00F041FA013D002DE3DA002000F085FF012000F038FA00222C4B2C49D1E9020102F0BBFC50B3264BDB78702B26D1012000F073FF032519E0214CAF
:4004800004EB051494F8240000F03AFF94F8280000F05AFF94F82C0000F04AFF94F8300000F03AFF194B186802F022FE00F00EFA013D002DE3DA002000F052FF012000F000
:4004C00005FA0022124B1349D1E9020102F074FC00283FF46DAF0C4BDB78702B7FF468AF002000F00DFF002000F02EFF002000F01FFF002000F010FF5AE700BF990000007E
:40050000C9010000CC80FF1F3482FF1F9482FF1F000014400882FF1FFEE700BFF0B40022174611E050F82760F3B226F0FF0608E001EB420511F812406D78A5550132013B78
:40054000DBB2002BF4D10137192FEBD9F0BC7047064B1B78DBB203F00701054A11701B09013213704422034B1A707047CF0100496E5800407658004008B50A46002102F0FF
:400580000EFE08BD08B502F0FFFD08BD08B502F0FBFD08BD38B51925284B1D801823284A137040F65F1227490A8002310B7002310A80254A13700222244B1A7008224FF09F
:4005C00040231A70032103F500731970204B1B78DBB220490B70204B1A8041F25122023B1A8000240CE01D4B1B7803F0010343EA440404F003044FF4F07000F0BDFE013D07
:400600000DB1032CEFD115B90320FFF785FF144B4FF480721A8007221A70002211490A704820023108701A700222033B1A700E4A137843F00703137038BD00BF80400040EB
:4006400082400040844000408A4000400043004008010049A146004022420040254200400440004006400040A243004038B572B6384A137843F00403137000240CE0364D82
:40068000630019194A0011462A44084691882858FFF772FF0134E4B2082CF0D900240BE02D49A3001819420088180622C16B806BFFF768FF0134E4B2002CF1D0264C04F18A
:4006C000440104F5A860FFF729FF244A137843F0020313701032137843F002031370204D2B7843F040032B70A2F58632513A137843F010031370082204F5B5611948FFF77B
:4007000041FF0A2204F5B6611748FFF73BFF082204F2BC511548FFF735FF082204F2C4511348FFF72FFF134A137843F008031370114C61232370FFF72DFF812323700122AD
:400740000E4B1A70FFF704FF0E2229460C48FFF71DFF38BDE8460040B852000003500140A043004002510040C05100401251004022510040224300400048004004000840C1
:40078000B043004008B502F0D3FC03680C2B00D1FEE7FEE708B5094B1A681044084BC31AB3F5007F02DC054B186005E002F0C0FC0C2303604FF0FF32104608BD3081FF1FE8
:4007C000B882FF1F08B5104E104D16E029686B68AC68002204E051F8040B43F8040B0432A242F8D1E868002203E0002143F8041B04328242F9D11035013E002EE6D102F041
:400800009DFCFFF7B9FDFEE701000000305A000008B5104A104B1A60104A136843F40073136000230AE0032B03D80D4A52F8231000E00C490C4A42F8231001332F2BF2D9EA
:400840000A4B1A780A4B1A70074A0A4B1A60FFF70DFF08BD0004FA050CED00E014ED00E000000000850700000080FF1FBC760040C080FF1F08ED00E0014B1B68186470473D
:4008800008ED00E04001C0B2014B1870704700BF00E400E00122014B1A60704700E100E00122014B1A60704780E100E010B50446FFF7F6FF2046FFF7DFFF0720FFF7E2FF2E
:4008C000FFF7E8FF10BD00BF01BE704710B5044605E0084B186800F04FFDA4F50044B4F5004FF6D8034B586800FB04F000F044FD10BD00BF3481FF1F08B5034B1B7A00FB4B
:4009000003F000F039FD08BD3481FF1F70B504460E46074B1D681F2802D90020FFF7D4FF04F01F04103455F8240045F8246070BD08ED00E038B504460D46072902D900201D
:40094000FFF7C2FF1F2C02D90020FFF7BDFF04F01F0000F1604000F564406D01EDB2057038BD00BF7222084B1A702022A3F201131A700622A2331A70472210331A70002290
:400980004D331A70704700BF8A65004010B500F0FBFC04460A4A137843F020031370A2F20112137843F010031370FF32137843F01003137000F066F8204600F0E9FC10BD04
:4009C0009A65004008B5054B1B7823B9FFF7CAFF0122024B1A70FFF7D9FF08BD1882FF1F084B1B78DBB213F0200F06D0064A1078C0B213F01E0F02D17047002070470020C2
:400A0000704700BF6964004049650040044B1B7813F0200F01D0012070470020704700BF6964004008B500F0AFFC064B1A7842F001021A701A7802F0FE021A7000F0A8FC49
:400A400008BD00BF99650040034B1B7813F0040FFAD1024B18707047686500404864004038B5074B1B782BB938BDFFF7EDFF0134A4B201E005460024285D0028F5D138BD9D
:400A80001882FF1F054A137843F0010313701032137843F001031370704700BFA243004038B50222114B1A7081220E3B1A70082202331A700F2511331D70002401331C7089
:400AC0004FF400420A4B1A6007212846FFF732FF08492846FFF71AFF1022074B1A70074B1C70074B1C70074B1C7038BDD649004080E100E0550B00009882FF1F9E82FF1F04
:400B0000A682FF1F9C82FF1F08B500F03DFC064A137843F0040313701032137843F00403137000F035FC08BDA543004008B5074B1B7823B9FFF7B4FF0122044B1A70FFF704
:400B4000E3FF4FF40042024B1A6008BD1A82FF1F00E100E038B5A54B1C78A54B1B7813F0400F00F03A81E4B214F0010F00F01D819F4B1B78453B052B00F21481DFE813F060
:400B800006008200120112010600DF0004F0DF0504F00A04082C42D1954B1B78DBB2452B35D1944B1B7813F0FF0F10D0924B1B681B78DBB2914A137004228C4B1A70012220
:400BC0008F4B1A7046228A4B1A702C46EDE08D4B1B7813F0020F0DD08B4A137843F00A0313706022824B1A704FF40042874B1A602C46DAE0864A137843F0100313701022E0
:400C0000844B1A700422023B1A702C46CDE00022764B1A704A22764B1A702C46C5E00A2C2BD1794A137843F0A0031370754B1B7813F0020F14D06E4B1B7813F0080F01D0B9
:400C4000092300E00A23704A11780B4313706022674B1A704FF400426C4B1A602C46A4E06B4A137843F0100313701022694B1A700422023B1A702C4697E00020FFF724FE36
:400C80002C4692E014F0020F36D15D4B1A78D2B2584B1B78DBB29A4210D2594A1378DBB255490968CB5CDBB254490B7004214F4B197013780133DBB2137076E0514B1B78C3
:400CC00013F0020F0CD0504A137843F00A0313706022474B1A704FF400424C4B1A6064E04B4A137843F0100313701022494B1A700422023B1A7058E0424B1B7813F0020F12
:400D00000CD0414A137843F09A0313706022384B1A704FF400423D4B1A6046E03C4A137843F01003137010223A4B1A700422023B1A70354A137843F09003137035E0364A42
:400D40001378DBB2354908682C490978C9B2C15413780133DBB213701278D2B2304B1B78DBB29A4203D21022204B1A701DE0254B1B7813F0020F0CD0234A137843F0090370
:400D8000137060221A4B1A704FF400421F4B1A600BE01F4A137843F0100313700022134B1A7002E00020FFF78FFD14F0200F1CD00F4B1B7813F0080F01D0012300E0022380
:400DC000114A11780B431370114A137803F0EF0313701022064B1A7038BD054B1B7813F0100F02D11022024B1A7038BDD74900409882FF1F9D82FF1FA882FF1FD84900409A
:400E00009C82FF1FA482FF1F9E82FF1F80E100E0D6490040D9490040A682FF1FA082FF1FA582FF1F1A4B1B78DBB2102B29D1194B1B7813F0080F26D14FF40042164B1A6005
:400E40004000C0B229B140F001004922104B1A7002E045220E4B1A70104B1870012201331A700F4B1B7813F0010FFAD00C4B1B7803F00A030A2B08D11022054B1A70032084
:400E8000704702207047012070470020704700BF9882FF1FD949004080E100E0D8490040D74900400A4B1B7813F0040F0ED01023074A13700421023A1170064A1370064BAF
:400EC0001B7813F0210FFAD00020704702207047D94900409882FF1FD7490040114B1B7813F0040F1BD0104B18700422013B1A7046220E4B1A700E4B1B7813F0010FFAD0E5
:400F00000B4B1B7813F0020F04D16022074B1A70002070476022054B1A70032070470220704700BFD9490040D84900409882FF1FD749004008B5034BD9790143187800F060
:400F40002BFA08BDAC82FF1F10B5044640F00400FFF7F0FF0120FFF7CFFC04F0FB00FFF7E9FF3220FFF7C8FC10BD00BF10B50446FFF7E0FF2046FFF7E7FF10BD38B50D4699
:400F800000F0F0030401E4B243EA0100FFF7EEFF44EA0500FFF7EAFF38BD00BF08B50121FFF7ECFF08BD00BF38B50546002402E0FFF7F4FF0134285D0028F9D138BD00BF11
:400FC00008B50021FFF7DAFF08BD00BF08B50120FFF7F6FF0220FFF779FC08BD08B50220FFF7EEFF0220FFF771FC08BD00B583B003460B4A106801900A4A52798A4201D24C
:40100000511EC9B202AA114411F8040C184460F07F00C0B2FFF7D4FF03B05DF804FB00BF8C580000AC82FF1F08B5054B987840F00400987040F00800FFF7C2FF08BD00BF84
:40104000AC82FF1F10B5194CE079FFF773FF4FF47A70FFF73BFC3020FFF788FF41F29410FFF74AFC3020FFF781FF41F29410FFF743FC3020FFF77AFF9620FFF73DFC202049
:40108000FFF774FF607840F02000FFF799FF0423A370FFF7C9FFFFF799FF0223E3700620FFF78EFFFFF79AFF10BD00BFAC82FF1F08B5094B3F221A7010221A7102225A715B
:4010C00000229A710822DA715A703220FFF7FEFBFFF7B8FF08BD00BFAC82FF1F024A137843F080031370704772640040024A137803F07F031370704772640040014B187079
:40110000704700BF83640040014B1878704700BF63640040014B1880704700BF04680040024B1B78024B188880B270470264004084680040014B188880B27047846800402A
:40114000014B1880704700BF44680040014B1880704700BF6468004008B501E0FFF7EAFFFFF7D2FF10F0400FF8D108BD08B5134A137803F0F80343F001031370137803F0D7
:40118000FC031370FFF7E8FF42F21070FFF7D8FF0020FFF7BFFF0020FFF7B0FFFFF7B4FF8020FFF7D3FF00F0EFF8054A137843F01003137000F0ECF808BD00BF72640040BD
:4011C0009364004008B5054B1B7823B9FFF7CEFF0122024B1A70FFF781FF08BD1B82FF1F084A137843F0010313701032137843F00103137002F64D32137843F001031370AF
:40120000704700BFA3430040014B1870704700BF034F0040014B1880704700BF044F0040014B1880704700BF064F004008B5164A137803F0010313700232137803F0FC0387
:401240001370124B1A7802F0CF021A701A7842F030021A701A7802F0F0021A701A7842F00F021A700A4A137843F00103137042F20F70FFF7CFFF42F20F70FFF7D1FF002027
:40128000FFF7C2FF08BD00BF004F00400B4F0040014F004008B5054B1B7823B9FFF7C6FF0122024B1A70FFF79BFF08BD1C82FF1F014B1B685864704708ED00E04001C0B22E
:4012C000014B1870704700BF01E400E00222014B1A60704700E100E00222014B1A60704780E100E010B50446FFF7F6FF2046FFF7DFFF0720FFF7E2FFFFF7E8FF10BD00BF00
:40130000044A137803F0EF03000100F0100018431070704720510040044A137803F07F03C001C0B218431070704700BF20510040044A137803F0BF03800100F0400018438E
:401340001070704720510040044A137803F0DF03400100F0200018431070704720510040044A137803F0FE0300F0010018431070704700BF005100400230800803D000BF57
:4013800001380046FCD17047EFF3108072B6704780F31088704700BF10B50C460021FFF741FD2046FFF79AFDFFF77CFD10BD00BF2DE9F04F8DB006460F4614461D4600F01E
:4013C0008FF9DFF81093CDE9000199F90080B8F1FF3F46D022462B462046294601F014FD834600283DD132463B463046394601F00BFD8246002874D1304639460022002320
:4014000001F0D0FC002833D0002200232046294601F0C8FC8346B8B1A94A012300200021CDF828A0CDE90467CDE90645CDE9080103920293B8F1000F6CD0A24B002210467A
:4014400019460DB0BDE8F08F2046294600F072FF38B1002200232046294601F0ADFC00286AD1DDE90023104619460DB0BDE8F08FDDE9000100F05EFF804600287DD0DDE962
:4014800000014FF0000A4FF0000B52465B4601F089FC0028E5D03046394600F04BFF0028DFD02046294600F045FF0028D9D099F90030834804210022022BCDE90467CDE954
:4014C0000645CDE908AB039002910A9204D002A800F036FF002847D101F02AFE2223036042E0002200232046294601F05BFC0028B7D0744B724800220121B8F1020FCDF863
:4015000028B0CDE90467CDE90645CDE9082303900291A8D002A800F013FF00287ED00A9B43B301F005FEDDE908230A990160104619460DB0BDE8F08F614999F90030012267
:40154000CDF828B0CDE90467CDE9064503910292002B68D05C490020022BCDE9080166D101F0E6FD212303600A9B1BB101F0E0FD0A9B0360DDE9082375E73046394600F045
:40158000D9FE00283FF47BAF2046294600F0D2FE00283FF474AFDDE900231046194601F033FC00286FD1464B99F90080039303230A90CDE90467CDE906450293B8F1000F2E
:4015C0003BD1DFF814B14FF0604A0022002330463946CDE908AB01F0EFFB00283FF477AF00223A4B2046294601F074F904460D4600F0AEFE02460B462046294601F0D2FB1C
:4016000000283DD1324B4FF06042CDE9082399F90080B8F1020F7FF45AAF5DE701F088FD212303607BE700230024CDE9083402A800F086FE002897D192E7DFF8A0B04FF064
:40164000000A0022002330463946CDE908AB01F0B3FB0028DDD000221C4B2046294601F039F904460D4600F073FE02460B462046294601F097FB18B9134B0022CDE90823A7
:4016800099F90080C5E70E4A99F900900123CDF82880CDE90467CDE9064503920293B9F1000FC0D0002200231046194601F03CFAB9F1020FCDE908013FF452AFB7E700BFA0
:4016C000905800000000F03F0000F0FF0000E03FFFFFEFC74481FF1FFFFFEF470000F07F2DE9F04F23F0004858EA020993B03CD0714C21F00046A64283460D460CDD06F147
:40170000404606F5801656EA0B0038D183466B49584613B0BDE8F08F9A4696462BD0A045EDDC654CA04578D0002D0F468146CDE9002376DB0024BEF1000F27D15E4B984526
:4017400000F08B805D4B984552D0BAF1804F00F0C9835B4B9A4519D1002D17DB4846394613B0BDE8F04F00F01DBDCB465846534913B0BDE8F08F0028C1D1B045D1DD5148DD
:4017800013B0BDE8F04F00F0DDBD00244846394600F0CCFDBBF1000F1CD0ED0F013D54EA050370D0484B984540F3948003F10473984540F30D84454B9E4270DDBAF1000F6D
:4017C00070DD3BA3D3E900231046194601F082F883469DE726B1394B25F040429A42DCD1BAF1000FC0F2B783002D08DB83468FE7BAF1000FC0F25E84CB46394688E706F1BE
:40180000404606F5801656EA040300F08384012CECD101F1004183467AE7BEF1000F83D06DE72B4B98452CDCA3F15473984581DD4FEA2853A3F2FF33142B40F35384C3F13E
:4018400034032EFA03F202FA03F39E457FF472AF02F00102C2F102046DE706F1404303F5801353EA0B0300F03A83184B9E4240F36783BAF1000F15DBDDE900349B46214660
:4018800046E7022457E74A4648463B46394600F06DFE02460B4601F047F9834638E7BAF1000F8EDB4FF0000B594631E7AFF300809C7500883CE4377E0000F07F0000F03F1A
:4018C0000000E03FB45200000000E041FFFFEF3FFFFF3F43B6F5801F4FF0000205DAD04B00F0F8FF0E466FF03402DFF844E33315C6F31306A3F2FF3346F07F57764503EB0D
:40190000020A47F4401740F3C983C64B00229E4240F304840023CDE90823CDE90C23C24B0022CDE906230AF1010AA7F5801700263946DDE90623CDE90A0100F017FEDDE96C
:40194000062380468946DDE90A0100F011FE02460B460020B44901F0E7F80A4601461346CDE90E1202464946404600F0B3FF8C4683467B1043F0005303F5002399190020F5
:40198000CDE904BC06460F464FF0000B6146584632463B46CDE910BCCDE9020100F09AFF02460B464046494600F0E0FDDDE90623804689463046394600F0D8FD02460B4672
:4019C000DDE90A0100F0D2FDDDE9022300F082FF02460B464046494600F0C8FDDDE90E2300F078FFDDE90478CDE906013A4643463846414600F06EFF77A3D3E9002306468B
:401A00000F4600F067FF76A3D3E9002300F0B0FD32463B4600F05EFF73A3D3E9002300F0A7FD32463B4600F055FF71A3D3E9002300F09EFD32463B4600F04CFF6EA3D3E9DB
:401A4000002300F095FD32463B4600F043FF6CA3D3E9002300F08CFD3246804689463B463046394600F036FF02460B464046494600F030FFDDE9022306460F46DDE9040163
:401A800000F076FDDDE9062300F024FF32463B4600F06EFDDDE902678046894632463B463046394600F016FF0022604BCDE90A0100F05EFD42464B4600F05AFDDDE910BCEB
:401AC0000F46DDE902015A463B46CDE90EBC5E4600F000FF0022CDE90201544B3046394600F044FDDDE90A2300F040FD02460B464046494600F03AFDDDE9042300F0EAFE3A
:401B0000324680468946DDE906013B4600F0E2FE02460B464046494600F02AFD8046894602460B46DDE9020100F022FDDDE90EBC35A3D3E900235846CDE906BC5E460F4659
:401B400000F0C8FEDDE90223CDE904013046394600F00CFD02460B464046494600F006FD2BA3D3E9002300F0B5FE2BA3D3E90023804689463046394600F0ACFE02460B46C0
:401B80004046494600F0F4FCDDE90C2300F0F0FC80465046894600F037FE06460F46DDE9040142464B4600F0E3FCDDE9082300F0DFFC32463B4600F0DBFCDDE906BC32463F
:401BC00058463B46DA468B4600F0D0FCDDE9082330E000BFAFF30080EF4E454A287ECA3F65DBC9934A86CD3F01411DA96074D13F4D268F515555D53FFFAB6FDBB66DDB3F16
:401C0000033333333333E33F000000E009C7EE3FFD033ADC09C7EE3FF5015B14E02F3EBE0000404379B60B000000F03F000008408E98030000F09AFCDDE9042300F096FCCE
:401C400002460B464046494600F090FC80468946DDE90012013C54EA050314BFD64CD74C0023CDE904340B461446CDE9023400230293DDE9024508462B461146224600F057
:401C800075FC52465B4600F025FEDDE9002306460F464046494600F01DFE02460B463046394600F065FC06460F4622462B4650465946CDE9006700F00DFE0B4602468046B8
:401CC00089463046394600F053FCBD4B064699420D460C4640F30E8101F13F4303F5E003034340F0F081A0A3D3E90023DDE9000100F03EFC424682468B464B46304629466B
:401D000000F034FC02460B465046594601F072F8002840F0D8812F463B154FF48012A3F2FE3342FA03F32344C3F30A52A54EA2F2FF321641C3F3130B0020C2F1140523EAC2
:401D400006014BF4801B02460B46002C4BFA05FB40464946B8BFCBF1000B00F007FC02460B4680468946DDE9000100F001FC4FEA0B5A00247EA3D3E9002320460D4600F0E5
:401D8000A9FD424606460F464B462046294600F0EDFB02460B46DDE9000100F0E7FB76A3D3E9002300F096FD75A3D3E90023804689462046294600F08DFD02460B4640466F
:401DC000494600F0D5FB8046894602460B463046394600F0CDFB32463B4604460D4600F0C5FB02460B464046494600F0BFFB2246804689462B462046294600F06BFD62A37B
:401E0000D3E9002306460F4600F064FD60A3D3E9002300F0ABFB32463B4600F05BFD5EA3D3E9002300F0A4FB32463B4600F052FD5BA3D3E9002300F099FB32463B4600F027
:401E400049FD59A3D3E9002300F092FB32463B4600F040FD02460B462046294600F086FB06460F4602460B462046294600F032FD0022CDE900014FF080433046394600F0D1
:401E800075FB02460B46DDE9000100F04DFE424606460F464B462046294600F01BFD42464B4600F065FB02460B463046394600F05DFB22462B4600F059FB02460B4600206B
:401EC0003D4900F053FB8A44BAF5801FC0F237815146DDE9042300F0FDFC834618E4F346354915E44A4648463B46394600F0F2FC83460DE4344B21F000479F4240F3018193
:401F0000324B0B4403430CD142464B4600F02EFB02460B46DDE9000100F058FF00283FF4FBAE23A3D3E90023DDE9040100F0D2FC1FA3D3E9002300F0CDFC8346FFF7E8BBEB
:401F4000BAF1000FBFF6AEACDDE900349B4604F10041FFF7DDBB02460B460020164900F0E3FD41E4AFF30080FE822B654715973C00000000432EE63FEF39FAFE422EE63F40
:401F8000396CA80C615C20BED0A4BE726937663EF16BD2C541BDBB3E2CDE25AF6A56113F93BDBE166CC1663F3E5555555555C53F59F3F8C21F6EA5010000F03F0000F0BF75
:401FC000FFFF8F40FFFF0F00FFCB904000346F3F6F4B9E427FF763AC6E4B9E423FF7EEAB00226C4B00F0C2FA5BA3D3E9002306460F4600F06FFC5AA3D3E900238046894635
:402000003046394600F066FC002282468B46624B3046394600F05EFC02460B4652A1D1E9000100F0A3FA32463B4600F053FC02460B460020594900F099FA3246CDE9020197
:402040003B463046394600F045FC02460B46DDE9020100F03FFC46A3D3E9002300F03AFC02460B465046594600F080FA02460B4606460F464046494600F07AFA42464B463A
:40208000002082468B4600F071FA02460B463046394600F06BFA80468946D9E500220023CDE90823CDE90C233A4B00220026CDE906233DE44A463B460020364900F034FD2D
:4020C0008346FFF725BB2CA3D3E90023DDE9040100F000FC28A3D3E9002300F0FBFB8346FFF716BBBEF1000F7FF44FABC3F1140348FA03F202FA03F3984524D07446FFF71C
:4021000021BB264B9F423FF707AEDDE902349A469B462EE602460B46FFF7B9BB204B4FF48026CDE9062316A3D3E90023CDE9082315A3D3E90023CDE90C23FFF7F9BB5A4640
:4021400000F096F9C5E602F00102C2F10204FFF7F9BA00BFAFF30080000000604715F73F44DF5DF80BAE543E555555555555D53FFE822B654715F73F9C7500883CE4377E26
:402180000000004003B8E23F06D0CF43EBFD4C3EFEFFEF3F0000F03F0000D03F0000E03F0000F83F2DE9F0415F4E0C46B6460E407645054600F0988000290B46024674DD39
:4021C0005FEA215E7FD0AEF2FF3EC3F313031EF0010F43F4801363D100273E4603EBD2710B444FEA6E0E520016204FF4001174189C424FEAD2754FEA420202DC1B1B66184E
:402200000F44013805EB43034FEA5101EFD1844620244FF0004109E020D003EBD275013C4FEA51012B444FEA420220D09E4201EB0C05F1DA002D05EB010C09DBB0469542CE
:40224000A3EB060300D9013B4646521B0844E4E7BCF1000FF2DB06F10108F0E7954217D8002D05EB010C49DB98460023ECE7134310D140087B1003F17F5303F50013FA077E
:4022800003EB0E57394648BF40F00040BDE8F0813346C2E7411C35D000F001031844E8E75B0003EBD273520096E721F000460643ECD079BB8E46D30AAEF1150E5205002B3A
:4022C000F9D0DD0221D4002100E001465B00DC0201F10100F9D5C0F1200422FA04F42343C1EB0E0E82406EE702460B4600F0F2FA2A46234600F03CF9BDE8F081BCF1000F8C
:40230000A9DAB1E701372046B4E720244FF0FF310020E2E702460B4600F028F902460B4600F002FCB2E700BF0000F07F21F00041704700BF41F0004101F58010C00F70476F
:402340000020704700200149704700BF0000F87FF0B5C1F30A5EAEF2FF36132E83B002460B460C464FEAD17507462EDC002E49DB3D49314103EA010010432BD049080B4042
:4023800053EA02070CD04FF48023132E24EA010143FA06F444EA01040CBF4FF000470027324B214603EBC505D5E90045384622462B4600F0DDF8CDE90001DDE90001224641
:4023C0002B4600F0D3F803B0F0BD332E06DDB6F5806F45D01046194603B0F0BDAEF2134E4FF0FF3121FA0EF10842F3D049080842D6D04FF0804320EA010143FA0EFE4EEAE2
:402400000107CDE721F0004101431946E4D0C3F3130343EA000CCCF1000343EA0C0C134B640C4FEA1C3C0CF4002C03EBC5036404D3E900674CEA040132463B4600F098F8AD
:40244000CDE90001DDE9000132463B4600F08EF8024621F0004141EAC57310461946BBE700F086F8B8E700BFFFFF0F0098580000F8B5C1F30A5604460D460B46174606BB85
:4024800021F00043034325D000222F4B00F022FA2E4A044697420D460B462ADBC1F30A56363E40F2FE723E44964228DC002E12DD23F0FF4323F4E00343EA06552046294650
:4024C000F8BD40F2FF729642EBD102460B4600F04FF8F8BDF8BD16F1350F1DDA4CF250339F420CDC14A1D1E9000122462B4600F031F811A3D3E9002300F0ECF9F8BD224603
:402500000FA1D1E900012B4600F024F80CA3D3E9002300F0DFF9F8BD23F0FF4323F4E003363643EA0655204629460022084B00F0D1F9F8BDAFF3008059F3F8C21F6EA50151
:402540009C7500883CE4377E00005043B03CFFFF0000903C03F0004321F0004242EA0301704700BF81F0004102E000BF83F0004330B54FEA41044FEA430594EA050F08BF2F
:4025800090EA020F1FBF54EA000C55EA020C7FEA645C7FEA655C00F0E2804FEA5454D4EB5555B8BF6D420CDD2C4480EA020281EA030382EA000083EA010180EA020281EA1A
:4025C0000303362D88BF30BD11F0004F4FEA01314FF4801C4CEA113102D0404261EB410113F0004F4FEA03334CEA133302D0524263EB430394EA050F00F0A780A4F10104D0
:40260000D5F1200E0DDB02FA0EFC22FA05F2801841F1000103FA0EF2801843FA05F359410EE0A5F120050EF1200E012A03FA0EFC28BF4CF0020C43FA05F3C01851EBE371A0
:4026400001F0004507D54FF0000EDCF1000C7EEB00006EEB0101B1F5801F1BD3B1F5001F0CD349085FEA30004FEA3C0C04F101044FEA445212F5800F80F09A80BCF1004F57
:4026800008BF5FEA500C50F1000041EB045141EA050130BD5FEA4C0C404141EB010111F4801FA4F10104E9D191F0000F04BF01460020B1FA81F308BF2033A3F10B03B3F14D
:4026C00020020CDA0C3208DD02F1140CC2F10C0201FA0CF021FA02F10CE002F11402D8BFC2F1200C01FA02F120FA0CFCDCBF41EA0C019040E41AA2BF01EB0451294330BDBF
:402700006FEA04041F3C1CDA0C340EDC04F11404C4F1200220FA04F001FA02F340EA030021FA04F345EA030130BDC4F10C04C4F1200220FA02F001FA04F340EA0300294646
:4027400030BD21FA04F0294630BD94F0000F83F4801306BF81F480110134013D4EE77FEA645C18BF7FEA655C29D094EA050F08BF90EA020F05D054EA000C04BF1946104653
:4027800030BD91EA030F1EBF0021002030BD5FEA545C05D14000494128BF41F0004130BD14F580043CBF01F5801130BD01F0004545F0FE4141F470014FF0000030BD7FEAD4
:4027C000645C1ABF194610467FEA655C1CBF0B46024650EA013406BF52EA033591EA030F41F4002130BD00BF90F0000F04BF0021704730B54FF4806404F132044FF0000511
:402800004FF0000150E700BF90F0000F04BF0021704730B54FF4806404F1320410F0004548BF40424FF000013EE700BF42004FEAE2014FEA31014FEA02701FBF12F07F43F9
:4028400093F07F4F81F06051704792F0000F14BF93F07F4F704730B54FF4607401F0004521F0004120E700BF50EA010208BF704730B54FF000050AE050EA010208BF7047EF
:4028800030B511F0004502D5404261EB41014FF4806404F132045FEA915C3FF4DCAE4FF003025FEADC0C18BF03325FEADC0C18BF033202EBDC02C2F1200300FA03FC20FA4F
:4028C00002F001FA03FE40EA0E0021FA02F11444C1E600BF70B54FF0FF0C4CF4E06C1CEA11541DBF1CEA135594EA0C0F95EA0C0F00F0DEF82C4481EA030621EA4C5123EAA4
:402900004C5350EA013518BF52EA033541F4801143F4801338D0A0FB02CE4FF00005E1FB02E506F00042E0FB03E54FF00006E1FB03569CF0000F18BF4EF0010EA4F1FF0467
:40294000B6F5007F64F5407404D25FEA4E0E6D4146EB060642EAC62141EA55514FEAC52040EA5E504FEACE2EB4F1FD0C88BFBCF5E06F1ED8BEF1004F08BF5FEA500E50F113
:40298000000041EB045170BD06F0004646EA010140EA020081EA0301B4EB5C04C2BFD4EB0C0541EA045170BD41F480114FF0000E013C00F3AB8014F1360FDEBF002001F0FD
:4029C000004170BDC4F10004203C35DA0C341BDC04F11404C4F1200500FA05F320FA04F001FA05F240EA020001F0004221F0004110EBD37021FA04F642EB06015EEA430E64
:402A000008BF20EAD37070BDC4F10C04C4F1200500FA04F320FA05F001FA04F240EA020001F0004110EBD37041F100015EEA430E08BF20EAD37070BDC4F1200500FA05F251
:402A40004EEA020E20FA04F301FA05F243EA020321FA04F001F0004121FA04F220EA020000EBD3705EEA430E08BF20EAD37070BD94F0000F0FD101F00046400041EB01015B
:402A800011F4801F08BF013CF7D041EA060195F0000F18BF704703F00046520043EB030313F4801F08BF013DF7D043EA0603704794EA0C0F0CEA135518BF95EA0C0F0CD0F1
:402AC00050EA410618BF52EA4306D1D181EA030101F000414FF0000070BD50EA410606BF1046194652EA430619D094EA0C0F02D150EA013613D195EA0C0F05D152EA03363B
:402B00001CBF104619460AD181EA030101F0004141F0FE4141F470014FF0000070BD41F0FE4141F4780170BD70B54FF0FF0C4CF4E06C1CEA11541DBF1CEA135594EA0C0F73
:402B400095EA0C0F00F0A7F8A4EB050481EA030E52EA03354FEA013100F088804FEA03334FF0805545EA131343EA12634FEA022245EA111545EA10654FEA00260EF00041D3
:402B80009D4208BF964244F1FD0404F5407402D25B084FEA3202B61A65EB03055B084FEA32024FF480104FF4002CB6EB020E75EB030E22BFB61A754640EA0C005B084FEA76
:402BC0003202B6EB020E75EB030E22BFB61A754640EA5C005B084FEA3202B6EB020E75EB030E22BFB61A754640EA9C005B084FEA3202B6EB020E75EB030E22BFB61A75460B
:402C000040EADC0055EA060E18D04FEA051545EA16754FEA06164FEAC30343EA52734FEAC2025FEA1C1CC0D111F4801F0BD141EA00014FF000004FF0004CB6E711F4801F3A
:402C400004BF01430020B4F1FD0C88BFBCF5E06F3FF6AFAEB5EB030C04BFB6EB020C5FEA500C50F1000041EB045170BD0EF0004E4EEA113114EB5C04C2BFD4EB0C0541EA50
:402C8000045170BD41F480114FF0000E013C90E645EA060E8DE60CEA135594EA0C0F08BF95EA0C0F3FF43BAF94EA0C0F0AD150EA01347FF434AF95EA0C0F7FF425AF104631
:402CC00019462CE795EA0C0F06D152EA03353FF4FDAE1046194622E750EA410618BF52EA43067FF4C5AE50EA41047FF40DAF52EA43057FF4EBAE12E74FF0FF3C06E000BFC8
:402D00004FF0010C02E000BF4FF0010C4DF804CD4FEA410C7FEA6C5C4FEA430C18BF7FEA6C5C1BD001B050EA410C0CBF52EA430C91EA030F02BF90EA020F0020704710F1D3
:402D4000000F91EA030F58BF994208BF90422CBFD8176FEAE37040F0010070474FEA410C7FEA6C5C02D150EA013C07D14FEA430C7FEA6C5CD6D152EA033CD3D05DF8040B03
:402D8000704700BF8446104662468C461946634600E000BF01B5FFF7B7FF002848BF10F1000F01BD4DF808EDFFF7F4FF0CBF012000205DF808FB00BF4DF808EDFFF7EAFF9E
:402DC00034BF012000205DF808FB00BF4DF808EDFFF7E0FF94BF012000205DF808FB00BF4DF808EDFFF7CEFF94BF012000205DF808FB00BF4DF808EDFFF7C4FF34BF01201F
:402E000000205DF808FB00BF4FEA410C7FEA6C5C02D150EA013C0AD14FEA430C7FEA6C5C02D152EA033C02D14FF0000070474FF0010070474FEA4102B2F1E04324BFB3F5EB
:402E4000001CDCF1FE5C0DD901F0004C4FEAC0024CEA5070B2F1004F40EB830008BF20F00100704711F0804F21D113F13872BCBF01F00040704741F480114FEA5252C2F1A3
:402E80001802C2F1200C10FA0CF320FA02F018BF40F001004FEAC1234FEAD32303FA0CFC40EA0C0023FA02F34FEA4303CCE77FEA625307D150EA01331EBF4FF0FE4040F43F
:402EC0004000704701F0004040F0FE4040F40000704700BF80F0004002E000BF81F0004142001FBF5FEA410392EA030F7FEA226C7FEA236C6AD04FEA1262D2EB1363C1BFCB
:402F0000D218414048404140B8BF5B42192B88BF704710F0004F40F4000020F07F4018BF404211F0004F41F4000121F07F4118BF494292EA030F3FD0A2F1010241FA03FCF6
:402F400010EB0C00C3F1200301FA03F100F0004302D5494260EB4000B0F5000F13D3B0F1807F06D340084FEA310102F10102FE2A51D2B1F1004F40EBC25008BF20F0010057
:402F800040EA03007047490040EB000010F4000FA2F10102EDD1B0FA80FCACF1080CB2EB0C0200FA0CF0AABF00EBC25052421843BCBFD0401843704792F0000F81F40001E1
:402FC00006BF80F400000132013BB5E74FEA41037FEA226C18BF7FEA236C21D092EA030F04D092F0000F08BF0846704790EA010F1CBF0020704712F07F4F04D1400028BF92
:4030000040F00040704712F100723CBF00F50000704700F0004343F0FE4040F4000070477FEA226216BF08467FEA23630146420206BF5FEA412390EA010F40F480007047CD
:403040004FF0000304E000BF10F0004348BF40425FEA000C08BF704743F0964301464FF000001CE050EA010208BF70474FF000030AE000BF50EA010208BF704711F0004399
:4030800002D5404261EB41015FEA010C02BF84460146002043F0B64308BFA3F18053A3F50003BCFA8CF2083AA3EBC25310DB01FA02FC634400FA02FCC2F12002BCF1004F7F
:4030C00020FA02F243EB020008BF20F00100704702F1200201FA02FCC2F1200250EA4C0021FA02F243EB020008BF20EADC70704742000ED2B2F1FE4F0BD34FF09E03B3EB19
:40310000126209D44FEA002343F0004323FA02F070474FF00000704712F1610F01D1420202D14FF0FF3070474FF00000704700BF014B1868704700BFA881FF1F0E4B70B573
:403140001E460E4C0025E41AA410A54204D056F8253098470135F8E702F058FC084B094C1E46E41AA4100025A54204D056F8253098470135F8E770BD185A0000185A0000DC
:40318000185A0000205A000010B5431E0A44914204D011F8014B03F8014FF8E710BD03460244934202D003F8011BFAE770472DE9F04788B0149F002B1E461299B8BF03F1FA
:4031C000004327F02007B6BF1E4600232D23462F1446109DDDF84CA00B7003D0452F03D1013501E0032300E0022307AA049206AA03928DE828042246334600F001FD472F7B
:40320000804602D1119BDB0728D5462F08EB050911D198F80030302B0AD10022002320463146FFF7BFFD18B9C5F10105CAF80050DAF8003099440022002320463146FFF7B2
:40324000B1FD08B9302202E0CDF81C9006E0079B994503D9591C07911A70F8E74046079B159AC8EB0303136008B0BDE8F087034673B50029B8BF494203F8022BB4BF2D2225
:403280002B22092942701ADD0DF1070216460A2591FBF5F405FB1411092C01F1300102F8011D2146F4DC3031541E02F8011CB4421A460AD214F8012B03F8012BF7E71A465A
:4032C0003024214402F8024B5970101A02B070BD2DE9F04F91B00C46DDF8688016461F46054601F025FA03681846099300F0F4FB00230E93D8F800300A90073323F0070342
:4033000003F1080294F81890D4F800B0C8F80020D3E90023C4E91223D4F84CA0D4F848802AF000430B934FF0FF32A74B40460B99FFF76AFDA0B94FF0FF32A34B40460B992D
:40334000FFF744FD60B90022002340465146FFF733FD10B12D2384F843309C4B9C4A0AE04246534640465146FFF74EFD002800F09281984B984AB9F1470F8CBF9046984650
:40338000032323612BF0040323604FF0000A3DE0B9F1670F00F08A81B9F1470F00F0868123600193636800210DF13302059002920093424653460691CDF81090CDF80CE086
:4033C0002846FFF7F4FE09F0DF03472B804600F08481B9F1650F0D9900F28D8101394A4604F150000D91FFF742FF0E9A82468318012A236100F37C812268D10700F17881D1
:403400009DF8333013B12D2384F84330009733460FAA2146284600F09FF9013002D14FF0FF3096E123685A0501D4236965E0B9F1650F40F2D580D4E9120100220023FFF742
:40344000B1FC78B30123654A31462846B8470130E5D00E9B0D9A9A420BDB2368D80708D423689B0740F111814FF0000804F1190906E10A9B099A31462846B8470130CED04F
:403480004FF0000804F11A090E9B013B9845E7DA01234A4631462846B8470130BFD008F10108F1E70D9B002B29DC01234B4A31462846B8470130B2D00D9B23B90E9B13B9D7
:4034C0002368D907CCD50A9B099A31462846B8470130A4D04FF0000904F11A0A0D9B5B42994509DA0123524631462846B847013095D009F10109F1E70E9B4246A7E00E9A16
:40350000A36D9A42A8BF1A46002A914606DC4FF0000A29EAE97904F11A0B11E01346314642462846B8470130F1D178E701235A4631462846B84701303FF471AF0AF1010AE3
:40354000A36DC9EB03029245F0DB08EB03090D9A0E9B9A420FDB2368DA070CD40E9B0D9A9844C9EB08089B1A9845A8BF9846B8F1000F08DC0FE00A9B099A31462846B84701
:403580000130EBD14BE743464A4631462846B84701303FF444AF4FF0000928EAE87804F11A0A09E00123524631462846B84701303FF435AF09F101090D9A0E9B9B1AC8EB38
:4035C00003039945EEDB4BE7FFFFEF7FAA580000AE580000B2580000B6580000BA5800000E9A012A01DCDB0738D50123424631462846B84701303FF412AF0A9B099A31463B
:403600002846B84701303FF40AAFD4E9120100220023FFF7C7FB20B14FF0000804F11A090EE00E9B08F10102013B19E001234A4631462846B84701303FF4F1AE08F101089E
:403640000E9B013B9845F1DB534604F1500231462846B84701307FF403AFE0E64246012331462846B8470130EED1D8E601234A4631462846B84701303FF4D1AE08F1010821
:40368000E3680F9A9B1A9845F0DBE0680F9B9842B8BF18465DE062680EA8531C0DF1340E4BF480637FF474AE062201E012B90122626075E6002106910DF133018DE80C0076
:4036C000236005904246CDF81090CDF80CE0029153462846FFF76BFD80460D9BD81C02DB626893421DDDA9F102095FFA89F970E60133236184E6B9F1660F14D10029636854
:4037000007DD216113B92268D2071DD501330B4419E013B92268D00701D5023313E0012311E04FF067090D9B0E9A934205DB22682361D10708D5013305E0002BD4BFC3F144
:4037400002030123134423610D9B4FF0000AA36556E611B0BDE8F08F2DE9F04791461F460A698B6806469342B8BF1346C9F8003091F843200C46DDF8208012B10133C9F8EF
:4037800000302368990642BFD9F800300233C9F80030256815F0060510D104F1190A07E00123524639463046C04701301AD00135E368D9F800209B1A9D42F1DB94F8433066
:4037C0002268003318BF012392060FD5E118302081F843005A1C94F845102244023382F8431003E04FF0FF30BDE8F08704F1430239463046C0470130F4D02268D9F800508E
:40380000E36802F00602042A08BF5D1B2269A3680CBF25EAE57500259342C4BF9B1AED184FF000091A344D4509D00123224639463046C0470130D5D009F10109F3E7002078
:40384000BDE8F0872DE9F04317460A7E85B06E2A984606460C460C9B01F1430E00F0AE8011D8632A22D009D8002A00F0BB80582A40F0CA8081F84520834955E0642A1ED0B8
:40388000692A1CD0C0E0732A00F0B08009D86F2A2ED0702A40F0B8800A6842F020020A603EE0752A24D0782A3AD0ADE01A6801F14205111D1960136884F84230A8E02168BC
:4038C0001A6811F0800F02D0111D196008E011F0400F02F10401196002D0B2F9003000E01368002B3CDA2D225B4284F8432037E021681A6811F0800F02D0111D196007E06E
:4039000011F0400F02F10401196001D0138800E01368227E5C496F2A14BF0A2208221BE078225A4984F845202268186812F0800F00F104051D6003D1550601D5038800E05D
:403940000368D00744BF42F0200222601BB9226822F0200222601022002084F8430001E049490A226568002DA56008DB206820F0040020602BB9002D7DD175460CE0002B39
:4039800079D07546B3FBF2F002FB1033CB5C05F8013D03460028F5D1082A0BD12368DA0708D5236962689A42DEBF302305F8013C05F1FF35C5EB0E0323612EE008681A6878
:4039C00010F0800F496903D0101D1860136808E010F0400F02F104001860136801D0198000E0196000232361754616E01A68111D1960156800216268284600F0A5FE08B10C
:403A0000401B6060636804E004F1420584F8422001232361002384F84330CDF800803B4603AA21463046FFF797FE013002D14FF0FF3026E023692A4639463046C04701306C
:403A4000F5D023689B0710D5002504F1190907E001234A4639463046C0470130E7D00135E368039A9B1A9D42F2DBE068039B9842B8BF184605E00B7804F1420584F842300E
:403A80008AE705B0BDE8F083BC580000CD5800000EB400B54FF402719CB0ADF814106FF00041049107914FF6FF711DAB02900690084853F8042BADF81610006802A901939F
:403AC00001F038FA029B00221A701CB05DF804EB03B07047A881FF1F034613F8012B002AFBD1181A013870472DE9F74F03690C6980469C427FDC013C01F114074FEA840EB0
:403B000000F1140606EB0E0357F82450019356F824300135B3FBF5F507EB0E09C5B34FF0000A3846B446D34650F8043B9AB205FB02A21B0C4FEA124A05FB03A392B2C2EB8C
:403B40000B0BBCF800204FEA134A5A441FFA83FBDCF800308145CBEB134303EB224392B242EA03424FEA234B4CF8042BDCD256F80E306BB9019B043B9E421A4602D3C8F88A
:403B8000104005E01268043B002AF8D1013CF3E7404600F0F4FF00282BDB304601354FF0000E57F8042B036891B2C1EB0E0E120C99B27144C2EB134303EB214389B24FEAA2
:403BC000234EB94541EA034340F8043BE9D256F8242006EB840362B9043B9E421A4602D3C8F8104005E01268043B002AF8D1013CF3E7284600E0002003B0BDE8F08F00003D
:403C00002DE9F04F456A95B08246219CCDE9022345B9102000F090FDCAF82400456085600560C560DAF82430196859B15A68012393404A608B60504600F0C9FDDAF82430C5
:403C400000221A60039BA04A002BBDBF01232360039B0023BCBF23F000430393DDF80C80A8BF236028F000431B0D1B0593421DD142F20F73209A1360029B43B9934A944BC1
:403C8000C8F31300002814BF1846104600E09048229B002B00F04685C37813B100F1080300E0C31C229A136000F03CBDDDE902450022002320462946FFF774F8074658B17B
:403CC000209A01231360229B002B00F01E8581481860013800F026BD12AB019313AB009322462B46504600F0C5FFC8F30A56049056B1C5F3130343F07F51204641F4401173
:403D0000A6F2FF3611971DE0139B129E1E4406F23243202B0ADD029A06F21240C3F1400322FA00F008FA03F3184304E0C3F12000029B03FA00F0FEF757FD0123A1F1F871CC
:403D4000013E11930022644BFEF710FC58A3D3E90023FEF7BFFD58A3D3E90023FEF708FC044630460D46FEF74FFD55A3D3E90023FEF7B0FD02460B4620462946FEF7F8FB0D
:403D800004460D4601F028FA00228346002320462946FFF711F858B15846FEF735FD02460B4620462946FEF7FDFF08B90BF1FF3BBBF1160F0DD8DDE90223484901EBCB0163
:403DC000D1E90001FFF716F830B10BF1FF3B002300E00123109300E01090129B9E1B731E079343BFC3F10008002307934FF00008BBF1000F06DB079BCDF82CB05B44079338
:403E0000002705E00023CBEB0808CBF100070B931E9B092B28D8052BC4BF043B1E931E9BC8BF0025A3F10203D8BF0125032B20D8DFE803F0060E0204012302E0012308E0D5
:403E400000230A931F9B002B1DDD9946059321E000230A931F9B0BEB030909F10103012B0593B8BF012315E0012500231E930A9501E001230A934FF0FF390022CDF8149020
:403E800012231F9206E04FF001094B46CDF81490CDF87C90DAF8244000226260042101F114029A421CD86268490001326260F6E761436F63A787D23FB3C8608B288AC63F54
:403EC000FB799F501344D33F0000F07FDE580000E7580000BB5800000000F83FF85800006168504600F03EFCDAF8243020601B680693059B0E2B00F25B81002D00F0588190
:403F0000DDE90234BBF1000FCDE90E3430DD9F4A0BF00F034FEA2B1502EBC303E80618CBCDE908340CD5DDE90E01994B05F00F05D3E90823FEF7F8FD0324CDE9020100E0AC
:403F40000224934E6DB1E90708D5DDE90801D6E90023FEF7BFFCCDE9080101346D100836F0E7DDE90823DDE90201FEF7DDFD20E0CBF1000505B3DDE90E01844B05F00F02BC
:403F800003EBC203D3E90023FEF7A4FCCDE902017F4E2D110023022455B1EA0705D5D6E90023FEF797FC013401236D100836F3E71BB1CDE9020100E00224109BE3B1DDE914
:403FC00002560022734B28463146FEF7F5FE98B1059B8BB1B9F1000F40F3E6800BF1FF330893314600226C4B2846FEF773FC0134CDE902014E4602E0059ECDF820B0204658
:40400000FEF702FCDDE90223FEF764FC634B0022FEF7AEFAA1F1507304460C931D46D6B9DDE9020100225E4BFEF7A0FA22460C9BCDE90201FEF7DEFE002840F03F820C9936
:40404000224601F10043DDE90201FEF7B5FE002840F02B82A8E00A9A4C4B711E002A49D003EBC103D3E9002300204E49FEF75CFD22462B46FEF77AFACDE90C01069CDDE995
:40408000020101F0A9F80546FEF7BEFB02460B46DDE90201FEF76AFADDE90C23303504F8015BCDE90201FEF787FE002840F01D83DDE9022300203749FEF758FADDE90C2313
:4040C000FEF77AFE002840F0D180069BE31AB3426ADADDE90C0100222F4BFEF7FBFB0022CDE90C01DDE902012B4BFEF7F3FBCDE90201C4E703EBC1012246D1E900012B46CA
:40410000FEF7E8FB069BCDE90C011D469C19DDE9020101F061F80646FEF776FB02460B46DDE90201FEF722FA303605F8016BAC42CDE902014FF0000222D11A4BDDE90C0111
:40414000FEF716FA02460B46DDE90201FEF752FE002840F08B80DDE90C2300201149FEF705FA02460B46DDE90201FEF725FED8B114F8013C621E302B40F0B7821446F7E705
:40418000054BFEF7A7FBCDE90201C0E7F8580000D05900000000F03F0000244000001C40000014400000E03FDDE90E34CDE90234139B002B7CDBBBF10E0F79DCAB4B03EBB7
:4041C000CB03D3E900671F9B002B14DA059B002B11DC40F06C810022A54B30463946FEF779FBDDE90223FEF7FBFD059D2E46002840F05F8165E1069CDDE9028932463B465E
:4042000040464946FEF790FC00F0E6FF0546FEF7FBFA32463B46FEF75DFB0B46024649464046FEF7A3F905F1300E069B04F801EBC3EB040E059B73452DD102460B46FEF7F8
:4042400097F98046894602460B4630463946FEF7B3FD78B942464B4630463946FEF7A2FD002800F04482EB0704D440E2DDF820B000E01C4614F8012C631E392A07D1069ACD
:404280009A42F6D1069930220BF1010B0A701A7801321A702BE20022764BFEF71BFB0022002380468946FEF77DFD0028A6D01EE20A9A002A2BD01E9A012A0ADC119A12B1B7
:4042C00003F2334302E0129BC3F136033D46444613E0059B5D1EAF42BFBF0B9BEA1B9B180B93059BB6BF2F467D1B0025002BA7BF4446059BC3EB08040023079A01211A4451
:4043000050469844079200F001FB064602E03D4644460A9E5CB1079B002B08DDA342A8BF2346079AC3EB0808E41AD31A0793002F1DDD0A9BABB18DB131462A46504600F076
:404340007FFB049A01460646504600F0E8FA04990890504600F03BFA089B04937A1B06D000E03A460499504600F06AFB04900121504600F0CBFA0B9B05465BB31A46014606
:40438000504600F05DFB1E9B0546012B18DC029B83B9039BC3F3130373B9039B23F000473F0D3F054FB1079B08F1010801330793012702E0002700E0029F0B9B73B100E036
:4043C00000272B6905EB8303186900F052FAC0F1200004E01E9B012BD9DD0B9F0120079B184410F01F0008D0C0F12003042B02DDC0F11C0002E006D018461C30079B804448
:40440000034404440793B8F1000F05DD42460499504600F063FB0490079B002B05DD29461A46504600F05AFB0546109B23B32946049800F0A4FB00281EDA00230A22049951
:40444000504600F0DBF90A9B0BF1FF3B0490002B00F05F81314600230A22504600F0CEF9B9F1000F06463FDC3BE000BFF85800000000144000002440059B002B2BDC1E9BD8
:40448000022B28DDDDF81490B9F1000F11D129464B460522504600F0B1F901460546049800F06DFB00280CDC03E0354600E000252E461F9B069C6FEA030B09E03546DDF8F6
:4044C00020B0069B069A5C1C312313700BF1010B05960026F7E00A9BDDF8149023B9069CB2E01E9B022BCFDC002C05DD31462246504600F0F3FA06469FB17168504600F0A2
:4045000031F90446326906F10C01023292000C30FEF73AFE01222146504600F0DFFA059000E00596029B069F03F00103079329460498FFF7D9FA3146044600F13008049813
:4045400000F01DFB059A02902946504600F033FBC36802463BB901460A90049800F00FFB0A9A034600E00123114650460A9300F02EF90A9B53B91E9A42B9079A32B9B8F1D6
:40458000390F2AD0029B002B1CDC1DE0029A002A04DB1BD11E9ACAB9079ABAB9002B13DD01220499504600F099FA2946049000F0E6FA002803DC07D118F0010F04D0B8F1E1
:4045C000390F0AD004F131087C1C0CE0002B07F101040BDDB8F1390F03D139233B70013756E008F1010887F800806CE0069B2746E31A4B4504F8018C3BD000230A22049935
:40460000504600F0FBF8059B04909E424FF00A024FF000033146504604D100F0EFF80646059084E700F0EAF8002306460A220599504600F0E3F8059079E700230A2204990E
:40464000504600F0DBF8049029460498FFF74CFA069B00F1300804F8018BE31A4B45ECDB069B0596B9F1010FACBF4B4401331F46002601220499504600F030FA294604903E
:4046800000F07DFA002803DC15D118F0010F12D03C4614F8013C621E392B09D1069B934204D10BF1010B3123069A02E01446F0E70133137007E03C4614F8013C621E302B85
:4046C00001D11446F8E72946504600F080F8059B6BB12EB19E4203D03146504600F077F80599504600F073F801E0DDF820B00499504600F06CF80023209A23700BF101037C
:404700001360229B1BB11C6001E008480AE0069808E0B9F1000F3FF7E2AE1E9B022B7FF7DEAEB1E615B0BDE8F08F00BFBA58000000487047AC81FF1F024B0146186800F05A
:4047400041BB00BFA881FF1F10B5C9B202449042034605D01C7801308C42F8D1184610BD002010BD70B5456A04460E463DB91020FFF7E2FF6062456085600560C560656A39
:40478000EB6843B1636ADB6853F8260078B1026843F8262017E021220421204600F0B8FA636AE860DB68002BECD1002070BD012101FA06F56A1D9200204600F0A9FA0028D7
:4047C000F3D04660856000230361C36070BD70B5446A06460D463CB91020FFF7ADFF7062446084600460C4603DB1736A6A68DB6853F82210296043F8225070BD2DE9F04172
:4048000006460C460D691F4601F1140E0023DEF80000013381B202FB0171000C0F0C02FB007089B201EB00419D424FEA10474EF8041BECDCD7B1A3689D4212DB61683046E6
:404840000131FFF78FFF8046226904F10C01023292000C30FEF798FC21463046FFF7B7FF444604EB850301355F6125612046BDE8F081030C1B0413B90004102300E00023EE
:4048800010F07F4F04BF0002083310F0704F04BF0001043310F0404F04BF80000233002803DB420003D5581C70471846704720207047036813F007020BD0D90722D49A0749
:4048C0004BBF5B089B08036003604CBF01200220704799B209B91B0C102213F0FF0F04BF1B0A0832190704BF1B090432990704BF9B080232D90702D45B0805D00132036049
:4049000010467047002070472020704710B50C460121FFF727FF01224461026110BD2DE9F74F14460A69236988469A42BEBF0B46A0461C46D8F81070D4F81090D8F8083016
:40494000D8F8041007EB09069E42C8BF0131FFF709FF00F114052B4605EB860C0022634502D243F8042BFAE704F1140208F1140102EB890301EB87070093009B0192934233
:4049800057D9B2F800B0BBF1000F23D08946AE464FF0000859F8044BBEF800A0A3B20BFB03A34FEA144ADEF8004043444FEA14480BFB0A84F24604EB13449BB243EA044322
:4049C0004F454FEA14484AF8043B01D9D646E1E7CEF80480019B0432B3F802A0BAF1000F21D02C4689462B684FF00008B9F800E0B4F802B09BB20AFB0EBEA346F04443EAC9
:404A000008434BF8043B59F8043BB4F804E01B0C0AFB03E34F4503EB18434FEA134801D95C46E3E763600435A7E75CF8043D13B9013E002EF9DC066103B0BDE8F08F000055
:404A40002DE9F843154612F0030206460F4607D0214C013A002354F82220FFF7CFFE0746AD1036D0746A3CB91020FFF765FE7062446084600460C460D6F82480D8F8084017
:404A80004CB940F271213046FFF740FF04460023C8F8080003604FF00008EB070AD5394622463046FFF73BFF814639463046FFF78EFE4F466D100CD0206808B10446ECE7BB
:404AC000224621463046FFF72AFF2060C0F80080F4E73846BDE8F883C05900002DE9F0470C460746914626694FEA621A56444968A368751CAB4202DA01315B00FAE7384665
:404B0000FFF730FE002380461A4600F11401534503DA41F823200133F9E72AEAEA73206901EB830319F01F0904F1140101EB800E14D0C9F1200C002208689A4600FA09F0AD
:404B4000024343F8042B51F8042B8E4522FA0CF2F2D8CAF8042042B1B51C06E0043B51F8042B8E4543F8042FF9D8013D3846C8F810502146FFF72BFE4046BDE8F08703698E
:404B80000A6910B59B1A11D192001430143183180A4453F8044D52F8041D8C4202D007D3012010BD9842F4D3002010BD184610BD4FF0FF3010BD2DE9F8430C460746114678
:404BC00020461546FFF7DBFF061E08D131463846FFF7C8FD012303614661BDE8F883BCBF23462C4638466168BABF1D4601260026FFF7B8FD2B69C660266905F1140904F166
:404C0000140101EB860709EB830800F114054FF0000C51F8042B59F8044B93B29C44A3B2240CC3EB0C03C4EB124202EB23429BB24FEA224CC84543EA02428E4645F8042B8C
:404C4000E7D8BE450ED25EF8041B8AB26244131403EB114392B242EA03424FEA234C45F8042BEEE755F8043D0BB9013EFAE70661BDE8F8832DE9F3411C4601219046089EF1
:404C8000099DFFF76FFDC4F31302C4F30A5407460CB142F480120192B8F1000F19D002A840F8088DFFF705FE009B48B1019AC0F1200102FA01F10B43C2407B61019200E007
:404CC0007B61019B002B14BF02210121BB61396107E001A8FFF7EDFD019B01217B613961203034B1A4F2334404443460C0F1350009E0A0F2324007EB810330601869FFF731
:404D0000B8FDC0EB41102860384602B0BDE8F08138B502FB01F4214600F054F8054618B122460021FEF73BFA284638BD38B50546002944D051F8043C0C1F002BB8BFE41881
:404D400000F017FA1E4A1368114613B96360146030E0A3420DD92268A018834201BF18685B681218226063600C6023E0A24203D813465A68002AF9D118681918A1420BD1F4
:404D80002168014458188242196013D110685268014419605A600DE002D90C232B6009E021686018824201BF106852680918216062605C602846BDE8384000F0DBB938BDA4
:404DC0002482FF1F70B5CD1C25F0030508350C2D38BF0C25002D064601DBA94202D90C23336046E000F0C5F9234B1C681A462146A1B10B685B1B0ED40B2B03D90B60CC183E
:404E0000CD501EE08C420BBF63684B681360636018BF0C4615E00C464968E9E7174C23681BB9304600F07AF920602946304600F075F9431C18D0C41C24F00304A0420DD1BA
:404E40002560304600F096F904F10B00231D20F00700C31A0ED05A42E25070BD211A304600F05CF90130EBD10C233360304600F081F9002070BD00BF2482FF1F2082FF1F96
:404E80002DE9F0478E6882469E420C46914698463ED88A8912F4906F3AD02568096902236F1A656905EB450595FBF3F57B1C43449D4238BF1D4653050FD52946FFF782FF22
:404EC000064698B13A462169FEF75EF9A38923F4906343F08003A38113E02A4600F04BF9064670B921695046FFF720FF0C23CAF80030A3894FF0FF3043F04003A381BDE87C
:404F0000F08726613E44266046466561ED1BA560464528BF464649463246206800F00EF9A36800209B1BA36023681E442660BDE8F08700002DE9F04F9DB003938B89804603
:404F40001C060D4616460DD50B695BB94021FFF739FF2860286118B90C23C8F80030CDE040236B610023099320238DF82930DFF89CB130238DF82A3037463C4614F8013B0D
:404F80001BB9B7EB060910D003E0252BF9D02746F3E74B46324629464046FFF771FF013000F0A780099B4B4409933B78002B00F0A08000234FF0FF320493079305920693EC
:404FC0008DF853301A930126052221784E48FFF7BBFB671C049B38B14B4A3C46801A06FA00F018430490EFE7D90644BF20228DF853201A0744BF2B228DF8532022782A2AEF
:4050000003D0079A00210A200BE0039A111D12680391002A10DA524243F00200079204900BE027463B780134303B092B03D800FB02320121F5E701B107923B782E2B1ED1B6
:405040007B782A2B0AD1039B02371A1D1B680392002BB8BF4FF0FF33059310E0002319460593781C0A2407463A780130303A092A03D804FB01210123F5E703B10591032238
:4050800039782248FFF760FB40B14023CBEB000003FA00F0049B013718430490397806221B487E1C8DF82810FFF74EFB88B1194B33B9039B073323F007030833039314E0B2
:4050C00003AB00932A46144B04A94046FEF700F907E003AB00932A460F4B04A94046FEF7B1FBB0F1FF3F824603D0099B5344099342E7AB895B0601D4099801E04FF0FF30E5
:405100001DB0BDE8F08F00BFF8590000FE590000025A0000D1320000814E000038B5064C0023054608462360FBF734FB431C02D1236803B12B6038BDB482FF1F884210B576
:4051400001EB020301D8421E0BE09842FBD28118D21AD34204D013F8014D01F8014DF8E710BD994204D011F8014B02F8014FF8E710BD70477047F8B5074615460E4621B9CE
:405180001146BDE8F840FFF71DBE1AB9FFF7CEFD2846F8BD00F015F885420ED929463846FFF710FE044650B131462A46FDF7ECFF31463846FFF7BAFD01E03046F8BD204672
:4051C000F8BD51F8040C0028BEBF091851F8043CC0180438704700004FEA410212F5001215D211D56FF47873B3EB625212D94FEAC12343F0004343EA505311F0004F23FACA
:4052000002F018BF404270474FF00000704750EA013005D111F0004008BF6FF0004070474FF00000704700BF00000000000000002569202020200000256920200000000046
:405240002020202020202020202000004769726F3A20497A7175696572646120000000004769726F3A2044657265636861202020000000004769726F3A20506172616E64FD
:405280006F20202000000000252E306620202000456E7669612056656C3A20252E30667C00000000456E7669612054696D653A2025690A0D00000000C84900401900004F83
:4052C00000400C00305100404000F0510040100000000140001000140140000800400140000A004C01400002005001402000000060520040845800000600000001200A3622
:4053000083678938880F8A7205010F011B021F0222022601290232013302340235013F144024410349FF4AFF4BFF4DA04F0150185280580459045A045B045C015D115F01A3
:405340006040628064406540668068406A506BA86C406D206E506FA887039102B101B702BF40C065C103C525C6C0C70EC81FC9FFCAFFCBFFCDAFCE07CF01D018D407D90441
:40538000DA04DB04DC10DD11DF01E040E280E440E540E680E840EA50EBA8EC40ED20EE50EFA8142016401C041E1021022240260427242E103102342037403B083C043F4032
:4053C0004220466047284A444BC851085250534059205A805B04610862107740842085208640C430CA20CC31CE52D0E2D20CD60ED8069F089F08E60201140205052C0608D6
:40540000071110031140120C14031604170319091B101C0A1E04211C2322280329102A042D302F0C300F3360351F39083A0240454102450E46C047B0482949FF4AFF4BFF3F
:405440004EF04F44500C580459045A045F0166C06A406B028106830185028601880989068A068B018C068D048E099406950698029B089C0F9F08A004A107A407A608A7012B
:40548000A901AB06B008B107B407B508B802BB02BF10D418D604D804D904DB04DF010080012804020710088009080B040D020E010F201250130117201A841D021F0120843C
:4054C00021012714288029282E012F49310832603602371439023A503B143E083F024512460847204C014D044E02571159016004628063408740C037C2B7C44CCAB7CCEE9F
:40550000CECFD0A0D210D601D80D39203F1059045F01222023088A209F08E008E220E401EA019F08E202E62006030A020B020C060E0113021E012302250129022A062D0206
:405540002E053207350137023A083F505401580459045B045F018404851487898802891F8C028D018F46900494029520991F9A019C02A201A404A50AA791B002B107B2043C
:40558000B318B401B520B7C0BE11BF50C063C104C202C401C5CEC803C9FFCAFFCBFFCC62CDA0CEF0CF41D00CD804D904DA04DF01E640E702E910EA30EB10ED10EE10EF1242
:4055C00000A0012002100302062608800A650B100F0210A0154017101810190A1A081F04204921042640270828202D442E222F45302033043602384439283A103D103F2096
:4056000040914204488049204A205C025D105E805F087D207F0484048A8491049204930297959B149C809D29A040A310A518A6A2A708C0E7C28FC4CCCAF2CC86CE2ED00FBD
:40564000D204D6F0E202E402E6200108040205040A030B630D030E0311EF150C1603198C1B431C031F802003218123102502280329E32B0C2C012D8F2F203003330F35ECB4
:4056800037103A803B2856025713580459045B045F018301860C9C0C9E03A102A203A401A60EA903AA08AC01AD03AE06B103B60FB902BA80BF01C001C704C9FFCA07CBFFC0
:4056C000CC40CD20CEF0CF05D008D804D904DA04DF01E040E1A8E240E32000140108030207100A210E021140124814011501162419011A031E021F40202021802218274046
:4057000029282A022B022C012E202F453188321138503A403B053F0247404D014F02560457085902682069206A40710873057A027B018C208D408E029054930A952096613D
:40574000978599229B109C209D019E04A302A430A508A602A709AC02AD04C027C285C4FBCABFCC0FCE8FD010D601E008E401EA0132203680CC300C408440A6A0C280E41021
:4057800012803E10A6A0C410CE2086209610A620E640672084088A029610D880E2401220164070087E02822086408B109720A008A202AA10C430DC80DE20E010E480EA80BE
:4057C000132416807B107F4087448A80C40EDE03E60412807340831087408E8093409780A710AB20C408DC01E202000308020C0110011C01000F03C0024F00400264004029
:40580000026500404D02014028030140010501400207014053080140360901400414014008150140031701404C18014045190140481A01404B1B014003400140054101406D
:4058400005420140044301400648014011490140094C01400C4D014005500140025101408001010000000000830040808300830000000000000B0B000000000000F0F000D3
:4058800000000000028000004300000000401454706F770000000000000000000000304300000000000030C34300494E4600696E66004E414E006E616E0030003031323352
:4058C000343536373839414243444546003031323334353637383961626364656600496E66696E697479004E614E00504F534958002E000000000000000000000000F03F33
:40590000000000000000244000000000000059400000000000408F40000000000088C34000000000006AF8400000000080842E4100000000D01263410000000084D7974102
:405940000000000065CDCD41000000205FA00242000000E876483742000000A2941A6D42000040E59C30A2420000901EC4BCD64200003426F56B0C430080E03779C34143EB
:4059800000A0D8855734764300C84E676DC1AB43003D9160E458E143408CB5781DAF154450EFE2D6E41A4B4492D54D06CFF08044F64AE1C7022DB544B49DD9794378EA4404
:4059C00005000000190000007D000000000000000080E03779C34143176E05B5B5B89346F5F93FE9034F384D321D30F94877825A3CBF737FDD4F1575232D302B2000686CEE
:405A00004C0065666745464700000000F8B500BFF8BC08BC9E4670474D00000011080000F8B500BFF8BC08BC9E46704729000000405A0000C880FF1F20010000D000000098
:405A400000000000010000004769726F3A2050617261646F2020202056454C203A203020202020202072706D010000000000000000000000000000000000000001000000C1
:405A800000000000000000000000000000000000010000000000000000000000000000000000000001000000B882FF1F0000E02EC05D00001800000000366E0101000000A3
:405AC0000000000000000000000000000000000000000000000000000000000000000000A858000000000000000000000000000000000000000000000000000000000000A6
:405B000000000000000000000000000000000000000000000000000000000000000000004881FF1FF1580000FD590000FD590000FD590000FD590000FD590000FD59000031
:405B4000FD590000FD590000FD590000FFFFFFFFFFFFFFFFFFFFFFFFFFFF000000000000000000000000000000000000000000000000000000000000000000000000000031
:405B800000000000000000000000000000000000000000000000000000000000000000000000000000000000000000000000000000000000000000000000000000000000E5
:405BC00000000000000000000000000000000000000000000000000000000000000000000000000000000000000000000000000000000000000000000000000000000000A5
:405C00000000000000000000000000000000000000000000000000000000000000000000000000000000000000000000000000000000000000000000000000000000000064
:405C40000000000000000000000000000000000000000000000000000000000000000000000000000000000000000000000000000000000000000000000000000000000024
:020000040003F7
:0200000490006A
:040000000000400DAF
:0200000490105A
:04000000BC90ACAF55
:0200000490303A
:02000000559514
:0200000490402A
:4000000000000000000000000000000000000000000000000000000000000000000000000000000000000000000000000000000000000000000000000000000000000000C0
:400040000000000000000000000000000000000000000000000000000000000000000000000000000000000000000000000000000000000000000000000000000000000080
:400080000000000000000000000000000000000000000000000000000000000000000000000000000000000000000000000000000000000000000000000000000000000040
:4000C0000000000000000000000000000000000000000000000000000000000000000000000000000000000000000000000000000000000000000000000000000000000000
:0200000490501A
:0C00000000012E16106900012E3965FE6B
:00000001FF